{
  "contractName": "MusicInfo",
  "abi": [
    {
      "anonymous": false,
      "inputs": [
        {
          "indexed": false,
          "internalType": "string",
          "name": "approvedDate",
          "type": "string"
        },
        {
          "indexed": false,
          "internalType": "string",
          "name": "contributor",
          "type": "string"
        },
        {
          "indexed": false,
          "internalType": "string",
          "name": "uploadData",
          "type": "string"
        },
        {
          "indexed": false,
          "internalType": "string",
          "name": "detailedInfo",
          "type": "string"
        }
      ],
      "name": "RegisterMusicInfo",
      "type": "event"
    },
    {
      "constant": true,
      "inputs": [
        {
          "internalType": "uint256",
          "name": "",
          "type": "uint256"
        }
      ],
      "name": "_musics",
      "outputs": [
        {
          "internalType": "string",
          "name": "approvedDate",
          "type": "string"
        },
        {
          "internalType": "string",
          "name": "contributor",
          "type": "string"
        },
        {
          "internalType": "string",
          "name": "uploadData",
          "type": "string"
        },
        {
          "internalType": "string",
          "name": "detailedInfo",
          "type": "string"
        }
      ],
      "payable": false,
      "stateMutability": "view",
      "type": "function"
    },
    {
      "constant": true,
      "inputs": [],
      "name": "musicsCount",
      "outputs": [
        {
          "internalType": "uint256",
          "name": "",
          "type": "uint256"
        }
      ],
      "payable": false,
      "stateMutability": "view",
      "type": "function"
    },
    {
      "constant": false,
      "inputs": [
        {
          "internalType": "string",
          "name": "approvedDate",
          "type": "string"
        },
        {
          "internalType": "string",
          "name": "contributor",
          "type": "string"
        },
        {
          "internalType": "string",
          "name": "uploadData",
          "type": "string"
        },
        {
          "internalType": "string",
          "name": "detailedInfo",
          "type": "string"
        }
      ],
      "name": "registerMusicInfo",
      "outputs": [],
      "payable": false,
      "stateMutability": "nonpayable",
      "type": "function"
    },
    {
      "constant": true,
      "inputs": [],
      "name": "getAllMusicInfos",
      "outputs": [
        {
          "internalType": "string[]",
          "name": "approvedDates",
          "type": "string[]"
        },
        {
          "internalType": "string[]",
          "name": "contributors",
          "type": "string[]"
        },
        {
          "internalType": "string[]",
          "name": "uploadDataes",
          "type": "string[]"
        },
        {
          "internalType": "string[]",
          "name": "detailedInfos",
          "type": "string[]"
        }
      ],
      "payable": false,
      "stateMutability": "view",
      "type": "function"
    }
  ],
  "bytecode": "0x608060405234801561001057600080fd5b50610ed5806100206000396000f3fe608060405234801561001057600080fd5b506004361061004c5760003560e01c8063369f509e146100515780634b9393df1461006d578063693e49561461008e578063e3d8549f146100c1575b600080fd5b61006b600480360361006691908101906109e7565b6100df565b005b610075610204565b6040516100859493929190610c16565b60405180910390f35b6100a860048036036100a39190810190610aaa565b61060e565b6040516100b89493929190610cd8565b60405180910390f35b6100c96108ab565b6040516100d69190610d39565b60405180910390f35b6100e76108b1565b60405180608001604052808681526020018581526020018481526020018381525090506001819080600181540180825580915050906001820390600052602060002090600402016000909192909190915060008201518160000190805190602001906101549291906108d9565b5060208201518160010190805190602001906101719291906108d9565b50604082015181600201908051906020019061018e9291906108d9565b5060608201518160030190805190602001906101ab9291906108d9565b5050505060008081548092919060010191905055507f444f2d8cfdfa263bba30f71a5b43f7ca8228552982bf6c87fa2be372af4618c8858585856040516101f59493929190610c77565b60405180910390a15050505050565b60608060608060005460405190808252806020026020018201604052801561024057816020015b606081526020019060019003908161022b5790505b50935060005460405190808252806020026020018201604052801561027957816020015b60608152602001906001900390816102645790505b5092506000546040519080825280602002602001820160405280156102b257816020015b606081526020019060019003908161029d5790505b5091506000546040519080825280602002602001820160405280156102eb57816020015b60608152602001906001900390816102d65790505b50905060008090505b6000548110156105fb5760006001828154811061030d57fe5b90600052602060002090600402019050806000018054600181600116156101000203166002900480601f0160208091040260200160405190810160405280929190818152602001828054600181600116156101000203166002900480156103b55780601f1061038a576101008083540402835291602001916103b5565b820191906000526020600020905b81548152906001019060200180831161039857829003601f168201915b50505050508683815181106103c657fe5b6020026020010181905250806001018054600181600116156101000203166002900480601f0160208091040260200160405190810160405280929190818152602001828054600181600116156101000203166002900480156104695780601f1061043e57610100808354040283529160200191610469565b820191906000526020600020905b81548152906001019060200180831161044c57829003601f168201915b505050505085838151811061047a57fe5b6020026020010181905250806002018054600181600116156101000203166002900480601f01602080910402602001604051908101604052809291908181526020018280546001816001161561010002031660029004801561051d5780601f106104f25761010080835404028352916020019161051d565b820191906000526020600020905b81548152906001019060200180831161050057829003601f168201915b505050505084838151811061052e57fe5b6020026020010181905250806003018054600181600116156101000203166002900480601f0160208091040260200160405190810160405280929190818152602001828054600181600116156101000203166002900480156105d15780601f106105a6576101008083540402835291602001916105d1565b820191906000526020600020905b8154815290600101906020018083116105b457829003601f168201915b50505050508383815181106105e257fe5b60200260200101819052505080806001019150506102f4565b5083838383935093509350935090919293565b6001818154811061061b57fe5b9060005260206000209060040201600091509050806000018054600181600116156101000203166002900480601f0160208091040260200160405190810160405280929190818152602001828054600181600116156101000203166002900480156106c75780601f1061069c576101008083540402835291602001916106c7565b820191906000526020600020905b8154815290600101906020018083116106aa57829003601f168201915b505050505090806001018054600181600116156101000203166002900480601f0160208091040260200160405190810160405280929190818152602001828054600181600116156101000203166002900480156107655780601f1061073a57610100808354040283529160200191610765565b820191906000526020600020905b81548152906001019060200180831161074857829003601f168201915b505050505090806002018054600181600116156101000203166002900480601f0160208091040260200160405190810160405280929190818152602001828054600181600116156101000203166002900480156108035780601f106107d857610100808354040283529160200191610803565b820191906000526020600020905b8154815290600101906020018083116107e657829003601f168201915b505050505090806003018054600181600116156101000203166002900480601f0160208091040260200160405190810160405280929190818152602001828054600181600116156101000203166002900480156108a15780601f10610876576101008083540402835291602001916108a1565b820191906000526020600020905b81548152906001019060200180831161088457829003601f168201915b5050505050905084565b60005481565b6040518060800160405280606081526020016060815260200160608152602001606081525090565b828054600181600116156101000203166002900490600052602060002090601f016020900481019282601f1061091a57805160ff1916838001178555610948565b82800160010185558215610948579182015b8281111561094757825182559160200191906001019061092c565b5b5090506109559190610959565b5090565b61097b91905b8082111561097757600081600090555060010161095f565b5090565b90565b600082601f83011261098f57600080fd5b81356109a261099d82610d81565b610d54565b915080825260208301602083018583830111156109be57600080fd5b6109c9838284610e28565b50505092915050565b6000813590506109e181610e7b565b92915050565b600080600080608085870312156109fd57600080fd5b600085013567ffffffffffffffff811115610a1757600080fd5b610a238782880161097e565b945050602085013567ffffffffffffffff811115610a4057600080fd5b610a4c8782880161097e565b935050604085013567ffffffffffffffff811115610a6957600080fd5b610a758782880161097e565b925050606085013567ffffffffffffffff811115610a9257600080fd5b610a9e8782880161097e565b91505092959194509250565b600060208284031215610abc57600080fd5b6000610aca848285016109d2565b91505092915050565b6000610adf8383610b95565b905092915050565b6000610af282610dbd565b610afc8185610deb565b935083602082028501610b0e85610dad565b8060005b85811015610b4a5784840389528151610b2b8582610ad3565b9450610b3683610dde565b925060208a01995050600181019050610b12565b50829750879550505050505092915050565b6000610b6782610dd3565b610b718185610e0d565b9350610b81818560208601610e37565b610b8a81610e6a565b840191505092915050565b6000610ba082610dc8565b610baa8185610dfc565b9350610bba818560208601610e37565b610bc381610e6a565b840191505092915050565b6000610bd982610dc8565b610be38185610e0d565b9350610bf3818560208601610e37565b610bfc81610e6a565b840191505092915050565b610c1081610e1e565b82525050565b60006080820190508181036000830152610c308187610ae7565b90508181036020830152610c448186610ae7565b90508181036040830152610c588185610ae7565b90508181036060830152610c6c8184610ae7565b905095945050505050565b60006080820190508181036000830152610c918187610b5c565b90508181036020830152610ca58186610b5c565b90508181036040830152610cb98185610b5c565b90508181036060830152610ccd8184610b5c565b905095945050505050565b60006080820190508181036000830152610cf28187610bce565b90508181036020830152610d068186610bce565b90508181036040830152610d1a8185610bce565b90508181036060830152610d2e8184610bce565b905095945050505050565b6000602082019050610d4e6000830184610c07565b92915050565b6000604051905081810181811067ffffffffffffffff82111715610d7757600080fd5b8060405250919050565b600067ffffffffffffffff821115610d9857600080fd5b601f19601f8301169050602081019050919050565b6000819050602082019050919050565b600081519050919050565b600081519050919050565b600081519050919050565b6000602082019050919050565b600082825260208201905092915050565b600082825260208201905092915050565b600082825260208201905092915050565b6000819050919050565b82818337600083830152505050565b60005b83811015610e55578082015181840152602081019050610e3a565b83811115610e64576000848401525b50505050565b6000601f19601f8301169050919050565b610e8481610e1e565b8114610e8f57600080fd5b5056fea365627a7a72315820f6d7a60b61ff89150a62e52d51f3717f9bbab2a9fc203da73510c841d92e745a6c6578706572696d656e74616cf564736f6c63430005100040",
  "source": "// SPDX-License-Identifier: MIT\npragma solidity >=0.5.0 <0.9.0;\n\npragma experimental ABIEncoderV2;\n\ncontract MusicInfo {\n  uint256 public musicsCount;\n  // 音楽情報を表現する構造体\n  struct Music {\n    string approvedDate;\n    string contributor;\n    string uploadData;\n    string detailedInfo;\n  }\n  Music[] public _musics;\n  //   音楽情報登録イベントの定義\n  event RegisterMusicInfo(\n    string approvedDate,\n    string contributor,\n    string uploadData,\n    string detailedInfo\n  );\n\n  //   音楽情報を登録するメソッド\n  function registerMusicInfo(\n    string memory approvedDate,\n    string memory contributor,\n    string memory uploadData,\n    string memory detailedInfo\n  ) public {\n    // 引数に設定された  音楽情報をもとに構造体を作成し、  音楽情報の配列に追加する。\n    // 同時に、  音楽情報の登録件数もインクリメントする。\n    Music memory music = Music({\n      approvedDate: approvedDate,\n      contributor: contributor,\n      uploadData: uploadData,\n      detailedInfo: detailedInfo\n    });\n    _musics.push(music);\n    musicsCount++;\n    //   音楽情報の登録イベントを実行する。\n    emit RegisterMusicInfo(approvedDate, contributor, uploadData, detailedInfo);\n  }\n\n  // 登録された  音楽情報を全件取得するメソッド\n  // 画面に表示する処理を考慮して、音楽情報の構造体の各項目をそれぞれ配列形式でレスポンスする。\n  function getAllMusicInfos()\n    public\n    view\n    returns (\n      string[] memory approvedDates,\n      string[] memory contributors,\n      string[] memory uploadDataes,\n      string[] memory detailedInfos\n    )\n  {\n    // レスポンス用の配列を初期化する。\n    approvedDates = new string[](musicsCount);\n    contributors = new string[](musicsCount);\n    uploadDataes = new string[](musicsCount);\n    detailedInfos = new string[](musicsCount);\n    // 登録された  音楽情報の件数分、レスポンス用の各配列に構造体の各項目の値を追加する。\n    for (uint256 i = 0; i < musicsCount; i++) {\n      Music storage music = _musics[i];\n      approvedDates[i] = music.approvedDate;\n      contributors[i] = music.contributor;\n      uploadDataes[i] = music.uploadData;\n      detailedInfos[i] = music.detailedInfo;\n    }\n    return (approvedDates, contributors, uploadDataes, detailedInfos);\n  }\n}\n",
  "sourcePath": "/Users/sutoumichimasa/ProjectFolder/MUSICHAIN/src/contracts/MusicInfo.sol",
  "compiler": {
    "name": "solc",
    "version": "0.5.16+commit.9c3226ce.Emscripten.clang"
  },
  "schemaVersion": "3.4.10",
  "updatedAt": "2022-11-08T08:49:41.178Z",
  "devdoc": {
    "methods": {}
  },
  "userdoc": {
    "methods": {}
  }
}